:020000040800F2
:1000000020090020850100088D0100088F010008EB
:10001000910100089301000895010008000000000C
:100020000000000000000000000000009701000830
:1000300099010008000000009B0100089D010008D4
:100040009F0100089F0100089F0100089F01000810
:100050009F0100089F0100089F0100089F01000800
:100060009F0100089F0100089F0100089F010008F0
:100070009F0100089F0100089F0100089F010008E0
:100080009F0100089F0100089F0100089F010008D0
:100090009F0100089F0100089F01000875090008E2
:1000A0009F0100089F0100089F0100089F010008B0
:1000B0009D110008B9110008D91100089F0100081E
:1000C0009F0100089F0100089F0100089F01000890
:1000D0009F010008E91300086D1400089F01000843
:1000E0009F0100089F0100089F0100080000000018
:1000F0000000000000000000000000000000000000
:10010000000000009F0100089F010008000000009F
:100110009F0100089F01000800000000000000008F
:100120009F0100089F0100089F0100089F0100082F
:1001300000000000000000000000000000000000BF
:100140000000000000000000000000009F01000807
:1001500000000000000000009F0100089F0100084F
:100160009F01000800000000000000009F0100083F
:10017000DFF80CD000F022FB00480047BD28000843
:10018000200900200648804706480047FEE7FEE7B2
:10019000FEE7FEE7FEE7FEE7FEE7FEE7FEE7FEE737
:1001A000ED0E00087101000840EA01039B0703D02F
:1001B00009E008C9121F08C0042AFAD203E011F8A6
:1001C000013B00F8013B521EF9D27047D2B201E068
:1001D00000F8012B491EFBD270470022F6E710B54C
:1001E00013460A4604461946FFF7F0FF204610BDA5
:1001F000421C10F8011B0029FBD1801A704710B572
:10020000002200E0521C835C8C5CA34201D1002BD5
:10021000F8D1D8B2E1B2401A10BD30B50446002082
:10022000034600E05B1C934203D2E05CCD5C401BC4
:10023000F8D030BD30B505460020034600E05B1C19
:10024000934205D2EC5CC85C201A01D1002CF6D197
:1002500030BD80EA010210B502F00043400022D018
:100260004A001FD0010E01EB1261C0F35600C2F329
:10027000560240F4000042F40002A0FB02200004F9
:100280007F39140400D0401C50EA124001D44000D1
:10029000491EC2B20C0604EBD010401C4008802A54
:1002A00002D003E0002010BD20F00100002900DA98
:1002B0000020184310BD30B480EA010202F000456E
:1002C00030F0004221F0004013D090B1C30DD40DA6
:1002D000C2F31601C0F31600E41A41F4000140F421
:1002E00000027D34914201D3641C00E04900002CDF
:1002F00002DA30BC002070474FF400000023914226
:1003000001D3891A034340084FEA4101F7D151B1A3
:10031000914202D14FF0004105E002D24FF00101BD
:1003200001E06FF0010103EBC450284430BC00F041
:1003300055B8C10F80EAE0700844CA07962300212F
:1003400000F055B896230022114600F050B830B5A1
:100350000B46014600202022012409E021FA02F583
:100360009D4205D303FA02F5491B04FA02F528441D
:10037000151EA2F10102F1DC30BD2DE9F05F05464A
:10038000002092469B4688460646814640241BE054
:10039000284641464746224600F031FA53465A461F
:1003A000C01A914110D311461846224600F018FA9F
:1003B0002D1A67EB01084F4622460120002100F06C
:1003C0000FFA17EB00094E41201EA4F10104DFDCF7
:1003D000484631462A464346BDE8F09F0029A8BF5B
:1003E0007047401C490008BF20F00100704710B45E
:1003F000B0FA80FC00FA0CF050EA010404BF10BC13
:10040000704749B1CCF1200421FA04F411FA0CF13F
:1004100018BF012121430843A3EB0C01CB1D4FEA78
:1004200000614FEA102042BF002010BC704700EB73
:10043000C35010440029A4BF10BC7047401C4900A1
:1004400008BF20F0010010BC70472DE9FE4F804628
:1004500081EA0300C00F0C46009021F0004123F018
:100460000045B8EB0200A94105D24046214690461E
:100470001C460B46024623F00040104347D0270D90
:10048000C7F30A00C3F30A510290401A01904028B2
:100490006BDAC3F3130040F4801B0098924620B13E
:1004A0000023D2EB030A63EB0B0B01985946C0F112
:1004B0004002504600F094F906460D465046594613
:1004C000019A00F0ACF910EB08006141002487EAC2
:1004D000115284EAE7731A4340D0009A62B3019A3A
:1004E000012A4FEA075215DC001B61EB02014FF0B5
:1004F000004202EA0752CDE90042001C41F580119A
:1005000032462B4600F0ACF903B0BDE8F08F404610
:100510002146F9E7001B61EB0201001C41F5801345
:1005200000185B412018A2F5001747EB030140EAD1
:10053000D570B6196D4111E06D084FEA360645EAEF
:10054000C0754FEA0752001B61EB0201001C41F528
:10055000801149084FEA30000019514132462B46BC
:1005600003B0BDE8F04F00F06CB9009801224000E4
:100570000023D0EB020263EBE073009821464FEAC0
:10058000E074B8EB000061EB0401E9E783F000439D
:100590005BE781F0004158E72DE9FE4F81EA030453
:1005A00004F0004421F0004100944FF0000B23F0D0
:1005B000004350EA01045ED052EA03045BD0C3F367
:1005C0000A54C1F30A552C44A4F2F3340194A0FB5D
:1005D0000254C1F3130141F48011C3F3130343F434
:1005E000801301FB024400FB034E840A970A44EA8D
:1005F000815447EA8357A4FB076802958D0A05FBDF
:1006000007854FEA932C04FB0C542705029D4FEA03
:10061000065847EA1637B5EB08056EEB070C870E50
:10062000920E47EA811742EA8312A7FB0201B6EB5A
:100630000B0164EB00042B0D43EA0C335E1844EB12
:100640001C50DA465146E7FB0201C5F313044FEA9A
:100650000B3343EA14534FEA0432019C43EA060386
:10066000A4F10C040294009CCDE900B400F0F8F869
:1006700003B0BDE8F08F00200146F9E72DE9F04D09
:1006800081EA030404F0004B21F0004514464FF0CA
:10069000000A23F0004150EA050220D054EA01028A
:1006A0001DD0C5F30A570246C5F31303C1F3130067
:1006B000C1F30A5640F4801543F48013A7EB0608F3
:1006C000101BD64608F2FD3873EB050002D308F183
:1006D000010801E092185B41B8F1000F03DA002035
:1006E0000146BDE8F08D00204FF480110646844697
:1006F0000EE0171B73EB050705D3121B63EB050315
:1007000006434CEA010C49084FEA300092185B415D
:1007100050EA0107EDD152EA030012D082EA040048
:1007200083EA0501084305D0101BAB4106D2012224
:10073000002306E000224FF0004302E06FF00102C8
:1007400053101AEB06004CEB085110EB0A0041EB7A
:100750000B01BDE8F04D00F074B8C1F30A52C1F3CB
:10076000130140F2FF3341F480119A4202DA002073
:100770000146704740F233439A42A2F2334202DC10
:10078000524200F03CB800F02BB8000030B5041E17
:1007900071F1000404DB4FF00044404264EB0101BE
:1007A000141E73F1000405DB1C464FF00043524257
:1007B00063EB0403994208BF904230BD064C074DDD
:1007C00006E0E06840F0010394E807009847103421
:1007D000AC42F6D3FFF7D0FC304A0008504A00087C
:1007E000202A04DB203A00FA02F1002070479140F1
:1007F000C2F1200320FA03F3194390407047202AE6
:1008000004DB203A21FA02F00021704721FA02F3BA
:10081000D040C2F120029140084319467047202A77
:1008200006DBCB17203A41FA02F043EAE07306E018
:1008300041FA02F3D040C2F1200291400843194628
:10084000704710B5141E73F1000408DA401C41F122
:10085000000192185B411A4301D120F0010010BD44
:100860002DE9F04D92469B4611B1B1FA81F202E0BA
:10087000B0FA80F220329046FFF7B2FF04460F46EE
:1008800040EA0A0041EA0B0153465A46084313D096
:10089000114653EA010019D0C8F140025046FFF753
:1008A000AEFF05460E46504659464246FFF798FFB2
:1008B000084305D0012004E020463946BDE8F08D0C
:1008C0000020054346EAE0762C4337430A98630547
:1008D000E40AA0EB08000022FD0A44EA47540A306B
:1008E00002D500200146E9E7010510196941DDE95B
:1008F000084500196941BDE8F04DA2E770B58C18B4
:1009000010F8015B15F0070301D110F8013B2A1123
:1009100006D110F8012B03E010F8016B01F8016B10
:100920005B1EF9D12B0705D40023521E0DD401F80C
:10093000013BFAE710F8013BCB1A921C03E013F8D5
:10094000015B01F8015B521EF9D5A142D8D300200A
:1009500070BD10B503460C460022002100BF04E024
:10096000985C084481B2501CC2B2A242F8DBC9B202
:10097000084610BD10B5802000F018F858B14FF4AB
:10098000FA720121044801F0FDFA044801F05CFD0F
:10099000802000F005F810BD44000020DC0300209A
:1009A000014908607047000014040140014600201E
:1009B0000022074B1B6803EA0102054B14331B6836
:1009C0000B4013B10AB1012000E000207047000085
:1009D00000040140002123498279002A3AD00A46C6
:1009E000126803689A430B461A600A1D126803686E
:1009F0009A430B1D1A60027911440A6803681A436E
:100A00000A60184A0832126803689A43154B083383
:100A10001A601A1D126803689A43124B0C331A604D
:100A20004279102A0ED11A1F126803681A430D4B1F
:100A300008331A601A1D126803681A43094B0C33F5
:100A40001A600DE00749427911440A6803681A43A5
:100A50000A6005E0027911440A6803689A430A6053
:100A6000704700000004014030B500228B071C0FC6
:100A70000F2303FA04F20B4B8C1053F824309343EA
:100A8000084C8D1044F8253023468C1053F8243040
:100A90008C07240F00FA04F42343024C8D1044F811
:100AA000253030BD080001402DE9F0410246002507
:100AB0000026002000230024002791F803C00CF03A
:100AC0000F0591F803C00CF0100CBCF1000F03D01F
:100AD00091F802C04CEA050591F800C0BCF1000F86
:100AE00031D0146800202BE04FF0010C0CFA00F319
:100AF000B1F800C00CEA03069E4220D183004FF0FB
:100B00000F0C0CFA03F7BC4305FA03FC4CEA04048F
:100B100091F803C0BCF1280F06D14FF0010C0CFA7C
:100B200000FCC2F814C00AE091F803C0BCF1480F01
:100B300005D14FF0010C0CFA00FCC2F810C0401CAB
:100B40000828D1D31460B1F800C0BCF1FF0F34DD28
:100B5000546800202EE000F1080C4FF0010808FA5C
:100B60000CF3B1F800C00CEA03069E4221D18300C9
:100B70004FF00F0C0CFA03F7BC4305FA03FC4CEAE8
:100B8000040491F803C0BCF1280F05D100F1080C52
:100B900008FA0CF8C2F8148091F803C0BCF1480FB1
:100BA00007D100F1080C4FF0010808FA0CF8C2F860
:100BB0001080401C0828CED35460BDE8F081024666
:100BC000002093680B400BB1012000E0002070472B
:100BD000416170470161704710B500F001F810BD28
:100BE0004AF6AA2001490860704700000030004022
:100BF00070B5002100230F22C47804B3154C24687B
:100C000004F4E064C4F5E064210AC1F10403CA40BD
:100C1000447804FA03F184781440214309010E4C0E
:100C20000678A155047804F01F050124AC4005782E
:100C30006D11AD0005F1E025C5F8004109E004782B
:100C400004F01F050124AC40044D0678761145F8E8
:100C5000264070BD0CED00E000E400E080E100E023
:100C600002490143024A1160704700000000FA0582
:100C70000CED00E0024A0A400243024B1A60704742
:100C800080FFFF1F08ED00E029B1064AD269024348
:100C9000044BDA6104E0034AD2698243014BDA6112
:100CA000704700000010024029B1064A92690243D1
:100CB000044B9A6104E0034A92698243014B9A61B2
:100CC0007047000000100240012806D10649496D16
:100CD00041F03001044A516505E00349496D21F0B6
:100CE0003001014A516570470010024070B5054659
:100CF000002406E0601C84B2B4F5C87F01DD00204A
:100D000070BD02210E4800F029F80028F2D02946D3
:100D10000B4800F02FF8002406E0601C84B2B4F504
:100D2000C87F01DD0020EBE70121054800F016F83F
:100D30000028F2D0024800F01AF8C0B2E0E7000044
:100D40000030014021B1028842F04002028004E0FC
:100D500002884FF6BF731A40028070470246002097
:100D600013890B400BB1012000E0002070470146C1
:100D7000888970478181704710B50022028802F48B
:100D800041528B8903F4004323B1838843F4807379
:100D9000838003E0838823F4807383800B884C88EE
:100DA00023438C882343CC8823430C8923434C89D9
:100DB00023438C89C4F30E042343CC8923431A4371
:100DC0000280838B4FF2FF74234083830B8A03825C
:100DD00010BD10B500F002F810BD00001CB50020D9
:100DE000019000903D48006840F480303B49086025
:100DF00000BF3A48006800F4003000900198401CA1
:100E00000190009818B90198B0F5405FF1D13348CE
:100E1000006800F4003010B10120009001E00020D3
:100E200000900098012857D12D48006840F010002C
:100E30002B4908600846006820F007000860084653
:100E4000006840F004000860244840682349486076
:100E50000846406820F4605048600846406840F406
:100E6000005048600846406820F4E060486008464A
:100E7000406840F48060486008464068194908406E
:100E800016494860084640681749084313494860B6
:100E90000846006840F08070086000BF0F48006896
:100EA00000F000700028F9D00120FFF70DFF0B487B
:100EB000406820F00300094948600846406840F057
:100EC0000200486000BF0548406800F00C00082898
:100ED000F9D10020FFF7F8FE1CBD00000010024011
:100EE00000200240FFFFC01F0000052010B50121B7
:100EF0000807FFF7C9FE1D48007840F004001B49B1
:100F0000503981F8500000214FF08050FFF7BCFEAF
:100F10001748006840F0010015490860084640681D
:100F200014490840124948600846006812490840C0
:100F30000F4908600846006820F4802008600846D1
:100F400040680E4908400A4948600846006B0C4951
:100F50000840074908634FF41F008860FFF739FF16
:100F60004FF000600749086010BD0000507000405D
:100F7000001002400C00FFE8FFFFF6FEFFFF001725
:100F800000FFFEFE08ED00E0F0B50C46154600221D
:100F90000021068C4FF6FE773E400684028B018CC2
:100FA0004FF60C7632407E1C06EA03162E4332437F
:100FB0000F4EB0420BD0B0F1804F08D00D4EB04272
:100FC00005D00D4EB04202D00C4EB04206D14FF6C5
:100FD000FD76314044F00106314305E04FF6F576E9
:100FE000314044F00106314302830184F0BD00002A
:100FF000002C01400004004000080040000C0040AC
:10100000F0B50C461546002200210026078C4FF64D
:10101000EF7C07EA0C070784028B018C4FF6FF7701
:1010200007EA041640F6FF473A404FF6FF7707EA13
:1010300003373A434FF6FF7707EA05273A430F4F46
:10104000B8420BD0B0F1804F08D00D4FB84205D058
:101050000C4FB84202D00C4FB84206D14FF6DF77A2
:10106000394046F01007394305E04FF65F773940C5
:1010700046F01007394302830184F0BD002C014083
:101080000004004000080040000C0040F0B50C4691
:101090001546002200210026078C4FF6FF6C07EA58
:1010A0000C070784828B018C4FF6FF7707EA042632
:1010B0004FF60C773A404FF6FF7707EA03172F43B6
:1010C0003A430F4FB8420BD0B0F1804F08D00D4FCC
:1010D000B84205D00C4FB84202D00C4FB84206D1EE
:1010E0004FF6FF57394046F48077394305E04FF219
:1010F000FF57394046F48077394382830184F0BD3D
:10110000002C01400004004000080040000C00409A
:10111000F0B50C461546002200210026078C4EF63D
:10112000FF7C07EA0C070784828B018C4FF6FF7760
:1011300007EA043640F6FF473A404FF6FF7707EAE2
:1011400005273A434FF6FF7707EA03373A430F4F35
:10115000B8420BD0B0F1804F08D00D4FB84205D047
:101160000C4FB84202D00C4FB84206D14DF6FF7773
:10117000394046F48057394305E047F6FF57394078
:1011800046F48057394382830184F0BD002C01402E
:101190000004004000080040000C004010B5012190
:1011A000880700F04FF828B102F0F6FF0121880708
:1011B00000F033F810BD000010B50121054800F023
:1011C00041F830B1002000F0EDFE0121014800F0AF
:1011D00024F810BD0004004010B501210B4800F0B8
:1011E00031F810B10A4801F00BF90421074800F06A
:1011F00029F810B1064801F077F90421034800F0FE
:101200000CF80121014800F008F810BD000800406A
:10121000CC030020CA4302827047CA43028270474F
:1012200021B1028842F00102028004E002884FF6F8
:10123000FE731A40028070470146886B7047014672
:10124000486A704730B50246002000230024158A02
:1012500005EA0103958905EA010413B10CB10120E7
:1012600000E0002030BD000070B505460C46224865
:1012700085420BD0B5F1804F08D02048854205D07B
:101280001F48854202D01F48854200D100E000BFC0
:10129000208850B92389A28861882846FFF774FE08
:1012A000E188284600F048F825E0208804280AD183
:1012B0002389A28861882846FFF7A2FEE188284694
:1012C00000F043F817E0208808280AD12389A28873
:1012D00061882846FFF7DAFEE188284600F042F8E8
:1012E00009E02389A28861882846FFF711FFE18879
:1012F000284600F040F870BD002C0140000400407A
:1013000000080040000C00401AB183890B43838120
:1013100002E083898B43838170470A460021018C58
:101320004FF6DF7319404FF6FF7303EA02131943B8
:101330000184704741627047028B4FF6F3731A4085
:101340000283028B0A4302837047028B4FF2FF3302
:101350001A400283028B4FF6FF7303EA01231A43FC
:1013600002837047828B4FF6F3731A408283828B1D
:101370000A4382837047828B4FF2FF331A40828385
:10138000828B4FF6FF7303EA01231A43828370476F
:1013900000220288104B98420BD0B0F1804F08D049
:1013A0000E4B984205D00E4B984202D00D4B9842FE
:1013B00005D14FF68F731A408B8813439AB202807F
:1013C0008B68C3620B880385034B984201D18B7BEA
:1013D0000386012383827047002C014000040040F3
:1013E00000080040000C004010B508211B4800F028
:1013F00097F830B10821194800F07AF8174800F042
:10140000C6F840F22551154800F097F8A0B1202108
:10141000124800F076F812480088B0F5807F0BDAA9
:101420000E4800F0B4F8C1B20D4802880088401C94
:101430000B4B18800B48815440F22441074800F0C0
:101440007CF848B1012008490870044800F09FF872
:101450001021024800F04CF810BD00000038014097
:101460005C0000204C0100205A00002010B508212B
:101470001B4800F055F830B10821194800F038F841
:10148000174800F084F840F22551154800F055F84F
:10149000A0B12021124800F034F812480088B0F5BD
:1014A000807F0BDA0E4800F072F8C1B20D48028856
:1014B0000088401C0B4B18800B48815440F224419B
:1014C000074800F03AF848B102200849087004487B
:1014D00000F05DF81021024800F00AF810BD00008D
:1014E00000440040600000204C0200205A00002010
:1014F00001F40072B2F5007F00D100BFCA43028040
:10150000704710B50022002340F66A14A14200D1B2
:1015100000BF0A1201249440A3B2DC43048010BD32
:1015200002460020B1F5007F00D100BF13880B40B8
:101530000BB1012000E00020704770B50246002486
:1015400000230025002040F66A16B14200D100BFFA
:10155000C1F3421501F01F03012606FA03F3012D22
:1015600002D19689334006E0022D02D1168A33401B
:1015700001E0968A33400C12012606FA04F416881C
:10158000344013B10CB1012000E0002070BD0146D1
:101590008888C0F3080070477CB5044600201D46CB
:1015A000164600290BD0491ECDE90041044B6A467E
:1015B0002946304600F0D8F8009A002111707CBD11
:1015C000971E000802E008C8121F08C1002AFAD1BD
:1015D00070477047002001E001C1121F002AFBD1B3
:1015E000704700002DE9FF5F82B00021DDE9043083
:1015F000020DDDF840B0034318D044F61050A2F2BB
:10160000FF3242431514119801281FD0A5EB0B009F
:10161000401C5FEA000A4FF000064E4FDFF8389199
:10162000B046504615D5CAF1000413E011980124C4
:101630004AA3012801D16FEA0B010298119AC0E96F
:101640000031C0E9024206B0BDE8F09FCBF10000D6
:10165000DFE704460021404A491842EB0450CDE937
:10166000001012E0E00707D032463B4640464946AC
:10167000FEF792FF8046894632463B4610461946A1
:10168000FEF78AFF06460F466410002CEAD1DDE91A
:101690000401DDE90023BAF1000F06DAFEF77CFF52
:1016A00042464B46FEF778FF05E0FEF7E7FF42466D
:1016B0004B46FEF7E3FF04460E460022284BFFF799
:1016C00065F803D84FF0FF30014607E00022254BB4
:1016D00020463146FEF7B9FEFFF73FF8102409E037
:1016E000002C0ADB0A220023FEF747FE039B303260
:1016F0001A55641E50EA0102F2D1641C039AC4F127
:1017000011031444119A012A03D0012208430DD178
:101710000AE0084304D000204FF0110B119072E74B
:10172000A3EB0B056D1E0DE05B4504DD4FF00002E1
:1017300005F1010504E003DA4FF00002A5F101050F
:10174000002AECD002981199C0E90231C0E90045A5
:1017500079E70000000014400000F03F3000000076
:101760000000F0430000E03F2DE9FF4F95B09B469D
:101770008946064600250FE2252877D10024274612
:10178000F84A0121059400E0044316F8013F203B8C
:1017900001FA03F01042F7D130782A2811D06FF007
:1017A0002F033078A0F13002092A16D8059A44F0A8
:1017B000020402EB820203EB42021044761C059005
:1017C000EFE759F8042B0592002A03DA504244F45B
:1017D0000054059044F00204761C30782E2816D16F
:1017E00016F8010F44F004042A280DD06FF02F02E0
:1017F0003078A0F13003092B09D807EB870302EBFF
:101800004303C718761CF3E759F8047B761C30783D
:101810006C280FD006DC4C2817D068280DD06A2819
:1018200014D104E0742810D07A280FD10DE044F4CC
:1018300000140AE044F4801401E044F44014727887
:10184000824202D104F58014761C761C307866281A
:101850000BD013DC582877D009DC002875D0452838
:10186000F6D04628F4D047281AD19DE118E0632825
:1018700035D0642879D0652812D195E1702873D0CD
:1018800008DC6728F1D069286FD06E280DD06F284A
:1018900006D1B5E073282CD0752875D0782874D07F
:1018A0005A46179990476D1C75E1C4F302500228FF
:1018B00009D003280DD0D9F8001004280DD00D60F0
:1018C00009F1040967E1D9F80010EA17C1E90052EB
:1018D000F6E7D9F800100D80F2E70D70F0E719F87F
:1018E000041B8DF8001000208DF80100EA4601204D
:1018F00003E059F804AB4FF0FF3061074FF00001EF
:1019000002D40DE008F101018846B9420FDA8045A2
:10191000F8DB1AF808100029F4D108E008F10101F9
:1019200088468142FADB1AF808100029F6D105989A
:101930005B46A0EB080721463846179A00F094FA58
:10194000284400EB080507E04DE029E10DE01AF816
:10195000010B5A4617999047B8F10108F7D25B4638
:1019600021463846179A13E142E00A220092C4F356
:1019700002524FF0000A022A08D059F804CB032A79
:101980004FEAEC710AD00DE029E02AE009F10701E5
:1019900021F00702F2E802C1914609E00FFA8CFC3F
:1019A0004FEAEC71042A03D14FFA8CFC4FEAEC7138
:1019B000002907DA0A460021DCF1000C61EB020184
:1019C0002D2202E0220504D52B228DF804200122CD
:1019D00003E0E20701D02022F7E7904659E00A2110
:1019E00002E010220DE010214FF0000A00910BE000
:1019F00010224FF0000A44F004040827009203E08C
:101A000008224FF0000A0092C4F30252022A05D0C5
:101A100059F804CB0021032A08D009E009F1070195
:101A200021F00702F2E802C1914605E01FFA8CFCA2
:101A3000042A01D10CF0FF0C4FF00008220728D532
:101A4000702806D0009B83F0100353EA0A0305D0E8
:101A50000EE040228DF80420012208E05CEA010239
:101A600006D030228DF804208DF805000222904621
:101A7000009B83F0080353EA0A030AD15CEA0102DF
:101A800001D1620705D530228DF804204FF00108FE
:101A90007F1E582804D034A003900EA802900DE0B9
:101AA00036A0F9E753466046009AFEF766FC844686
:101AB0000398825C0298401E029002705CEA01006A
:101AC000F0D1029806A9081A00F1200A600702D591
:101AD00024F4803400E00127574502DDA7EB0A001B
:101AE00000E0002000EB0A01009005984144401AF4
:101AF0000590E00306D45B462146179A059800F04E
:101B0000B3F90544002706E001A85A46C05D1799BD
:101B100090476D1C7F1C4745F6DBE0030CD55B4608
:101B20002146179A059800F09FF9054404E03020FB
:101B30005A46179990476D1C0099481E009000293D
:101B4000F5DC08E0029802995A460078491C029197
:101B5000179990476D1CBAF10001AAF1010AF1DC56
:101B600065E1000009280100303132333435363761
:101B700038396162636465660000000030313233D9
:101B80003435363738394142434445460000000079
:101B900000F058F90544761C307800287FF4ECAD4D
:101BA00019B02846BDE8F08F620700D4062709F176
:101BB000070222F0070CFCE80223E14603F000488C
:101BC0005FEA080C02D00FF2702C0DE05FEA045CB3
:101BD00002D50FF2682C07E05FEAC47C02D00FF256
:101BE000602C01E0AFF2700C4FF0FF3823F000439F
:101BF000CDF850C065280CD006DC452809D0462811
:101C00001DD047283DD13DE0662818D067287ED1F9
:101C100038E00021112F01DB112000E0781CCDE914
:101C2000000106A90EA8FFF7DDFCDDE90F010E9A01
:101C300003910021009207F1010A04914DE04FF059
:101C400000400097CDE9011006A90EA8FFF7CAFCD5
:101C5000DDE90F0203920E9B11990022DDF80CA022
:101C60000093049211B9791C00EB010AB7EB0A004A
:101C700004D4C0F1FF3007F1010A0490AAEB070079
:101C8000019044E0012F00DA01270021112F01DD2E
:101C9000112000E03846CDE9000106A90EA8FFF7A3
:101CA000A1FCDDE90F010E9A03910021049100923D
:101CB000BA4621070CD40399514500DA8A46BAF195
:101CC000010F05DD009AAAF10101515C302908D00D
:101CD000B84202DA10F1040F06DA0121CDE9011051
:101CE00015E0AAF10101E9E7002805DC04990144A7
:101CF0000491AAEB000102E0411C514500DD8A4637
:101D00000499401A401C01904FF0004002902007B7
:101D100004D40198504501DBCDF8048000208DF8F3
:101D20004F0002980DF14F07B0F1004F25D02B2046
:101D30000E9002984FF0020800280CDA4042029000
:101D40002D200E9007E00A210298FEF700FB3031AB
:101D5000029007F8011DB8F10001A8F10108F2DCBA
:101D600002980028EFD1791E0E980870307800F0A4
:101D7000200040F0450007F8020D12A8C01B00F13A
:101D800007081498007800B1012000EB0A010198BF
:101D900001EBE07105984144401A401E0590E003B4
:101DA00006D45B462146179A059800F05DF8054475
:101DB0001498007818B15A46179990476D1CE003A3
:101DC00024D55B462146179A059800F04DF8054446
:101DD0001CE00498002807DBDDE90301884203DDED
:101DE0000098405C179901E0179930205A469047B7
:101DF000049805F10105401C04900198401E0190D3
:101E000004D12E205A46179990476D1CBAF1000153
:101E1000AAF1010ADDDC05E017F8010B5A46179913
:101E200090476D1CB8F10001A8F10108F4DC5B4695
:101E30002146179A0598ABE62D0000002B00000004
:101E4000200000002DE9F041044600251E461746FB
:101E5000880404D405E039462020B0476D1C641E78
:101E6000F9D52846BDE8F0812DE9F041044600256A
:101E70001E469046C80301D5302700E0202788047D
:101E800004D505E041463846B0476D1C641EF9D5BF
:101E90002846BDE8F0814A68002A06D00A68531C2B
:101EA0000B6010704868401E4860704710B50446CB
:101EB00024B940210448FEF78BFE03E0402102488C
:101EC000FEF788FE10BD00000010014038B5044642
:101ED00001211020FEF7E8FE4FF48060ADF800000D
:101EE00010208DF8030002208DF802006946064894
:101EF000FEF7DAFD4FF480610348FEF769FE90219A
:101F0000C82002F0CBF938BD0010014070B505467D
:101F10002C46A07800F07F0000280FDD2188481CA7
:101F20002080C8290ADB00202080A078401EA178EC
:101F300060F30601A1704FF4FA70606060680028D9
:101F40000AD96068401E6060A0786FEAD010A1785E
:101F500060F3C711A17003E0A07820F08000A070AA
:101F6000A078C00928B94FF480610548FEF730FE1B
:101F700004E04FF480610248FEF72CFE70BD0000C3
:101F80000010014010B50B4601468C7863F306043F
:101F90008C704A6000240C808C7824F0800480349B
:101FA0008C7010BD10B504460148FFF7AFFF10BD9F
:101FB00044000020014600200EE00A4A1278520632
:101FC000120E084B1A7001F001021B785A40054BA3
:101FD0001A704910421CD0B20828EEDB0148007884
:101FE000704700005900002070B505462C46252199
:101FF000204602F058FA3049087008460078012857
:1020000011D002280BD0042805D008280FD10420B5
:1020100084F820000CE0032084F8200008E002206F
:1020200084F8200004E0012084F8200000E000BFD4
:1020300000BF2148007800F00F0038B194F8230069
:1020400020F00200801C84F8230005E094F82300AF
:1020500020F0020084F8230094F82300C0F340002D
:10206000E8B120346068401C606020786070E078DF
:1020700000F00100E178203CC1F34001884210D01B
:102080004FF4FA7201210D48FFF77CFF01210C4843
:1020900000F0A6FA94F8200084F8220001E0002065
:1020A000606214F8230F4108207861F3000004F8FF
:1020B0002309002070BD00008C0000204400002097
:1020C00054000020014691F82120012A06D0022A5E
:1020D00005D0032A04D0042A04D102E003E002E080
:1020E00001E000E000BF00BF704710B504460020CB
:1020F000616988470120A1688847002021698847D5
:102100000220A16988470120616988470220A169EE
:10211000884700206169884710BD70B504460D46A8
:102120002846E169884770BD10B50446606880475D
:1021300001206169884701202169884710BD10B5D9
:1021400004460020616988470120A1688847012072
:10215000216988470220A169884701206169884771
:102160000220A169884700206169884710BD2DE9D8
:10217000F04104460E4600250020A168884700274C
:1021800014E00020616988470220A1698847012086
:10219000616988476806050EE068804708B1681CD9
:1021A000C5B20220A1698847781CC7B2082FE8DBB6
:1021B0001EB92046FFF7C3FF02E02046FFF795FF58
:1021C0002846BDE8F0812DE9F04104460D462F4632
:1021D000207818B12846FFF7EDFE07460120A168D8
:1021E0008847002061698847002615E0F8092169C1
:1021F00088477806070E0220A16988470120616997
:1022000088470220A1698847002061698847022029
:10221000A1698847701CC6B2082EE7DBBDE8F081D3
:1022200010B504460120A16888470120216988472C
:102230000120616988470420A1698847002021693D
:1022400088470420A169884700206169884710BD3C
:1022500010B504460120A1688847002061698847BD
:102260000020216988470420A1698847012061690D
:1022700088470120216988470420A169884710BD4B
:1022800070B5044600250020A16888470120216917
:1022900088470120A169884701206169884701209A
:1022A000A169884709E02846691CCDB2FA2804DDF7
:1022B0002046FFF7CDFF012070BDE0688047002871
:1022C000F1D1616988470020F6E73EB50446172042
:1022D0008DF8080001208DF809008DF80A008DF8AE
:1022E0000B4002A8FEF784FC8020FEF759FB072173
:1022F0000120FEF7B9FB8020009000208DF804003B
:1023000010208DF805008DF806406846FEF762FB48
:102310003EBD000008B501210820FEF7C5FC0121E3
:102320000846FEF7C1FC8020ADF8000048208DF87B
:10233000030002208DF8020069460448FEF7B4FB52
:10234000902142F2107001F0E7FF08BD000C01403F
:1023500070B505462C46A07800F0400000283FD01C
:102360006068000EA0736068010CE173A088000A29
:10237000207321796173A17BE07BC043C0B28142AD
:1023800021D1A07BF8B9217B607BC043C0B28142E0
:1023900019D101201649087016480078097888423A
:1023A0000DD00121144800F01BF94FF4FA720121FD
:1023B0001248FFF7E7FD0E4800780E490870207BB1
:1023C000607001206070607818B1A07800F0800023
:1023D00068B9A07820F04000A0700020207006E0CE
:1023E000002003490870084600780249087070BD53
:1023F000F5000020F40000205400002044000020DC
:1024000001460846827802F08002E2B1827822F02A
:1024100010028270827802F00F021AB9827842F0BC
:1024200040028270827802F00F020E2A03DA82786C
:10243000521C827007E0827822F0800282708278DB
:1024400002F0F0028270704770B505462C46207885
:10245000F8B10121154800F0C3F8D4F8040118B10F
:102460000120FFF732FF1FE0002004F58274A06016
:102470000F48FEF7E4FE606021792268501C20605E
:10248000A4F58274601C815400210948FEF752FFB4
:102490000AE00020FFF719FF0020C4F804014FF400
:1024A0008071601CFDF799FE70BD00005400002093
:1024B0000008004001460846027842B1D0F80C31CD
:1024C0005A1CC0F80C21022B01D90022027070475F
:1024D00010B504460348FFF73BFF02481030FFF7F2
:1024E000E9FF10BDCC03002070B505462C468021C5
:1024F0003248FEF764FB60B102213148FEF70DFF60
:1025000000212F48FEF716FFA07840F01000A070C1
:1025100053E02B48FEF790FEA06000212848FEF70C
:10252000FCFE41F26801A06888420BD941F25C21AF
:10253000A068884206D2A07840F08000A0700020F9
:10254000207036E0A07800F0100000B3A07800F012
:102550008000E0B1A068B0F5967F09D9A068B0F519
:10256000487F05D26068400060606068606020E07D
:10257000A068B0F5AF6F0BD9A068B0F5E16F07D2D6
:10258000606840006060606840F00100606010E0DA
:1025900040F69801A06888420BD940F62821A0682F
:1025A000884206D22078401C2070A07800F0F0000D
:1025B000A070A07820F01000A07070BD000C014049
:1025C0000008004010B504460448FFF70DFD03481D
:1025D00001F000FF0148FFF775FD10BD6400002009
:1025E00070B504460D4626461DB100203168884767
:1025F00002E001203168884770BD000008B5012164
:102600001020FEF751FBC020ADF8000010208DF81F
:10261000030002208DF8020069460648FEF744FADE
:1026200080210448FEF7D6FA40210248FEF7D2FA8C
:1026300008BD00000010014010B504462068804726
:1026400010BD000070B505460D490978481C00EB27
:10265000D0714910A0EB4101094A1170104604786D
:1026600004EBD4704010A4EB4000C1B20548FFF762
:10267000B7FF00210348001DFFF7B2FF70BD000047
:1026800058000020500000202DE9F84381460D46F7
:102690001646B0460EB9BDE8F8832B4633A200219A
:1026A0004846009600F0CAF825F00F04281B06449F
:1026B00006F10F0020F00F06344A0021484600F0D2
:1026C000BDF84FE0234632A20021484600F0B6F89C
:1026D000002714E0E019A84204D3E01905EB080133
:1026E000884205D32FA20021484600F0A7F805E054
:1026F000E35D2DA20021484600F0A0F87F1C102FBA
:10270000E8DB2BA20021484600F098F8002720E0E3
:10271000E019A84204D3E01905EB0801884205D36B
:1027200022A20021484600F089F811E0E05D20284F
:1027300009DBE05D7E2806DCE35D1EA20021484641
:1027400000F07CF804E01CA20021484600F076F876
:102750007F1C102FDCDB19A20021484600F06EF828
:102760001034103E002EADD100BF94E76D656D6F43
:102770007279206F66203078253038782C20736984
:102780007A653A2025643A0D0A0000004C4700089B
:102790001B5B33316D3078253038783A201B5B3342
:1027A000396D000020202000253032782000000004
:1027B0007C200000256300002E000000207C0D0A14
:1027C000000000003EB504460D4664B9502007A144
:1027D000094A0023CDE90021029008A20121881EA8
:1027E00000F02CF83EBD657100BFFBE74445425543
:1027F000475C6C6F672E63005A4600081B5B3331E1
:102800006D45282564292025733A1B5B33396D20DB
:10281000226C6F6722206173736572742066616930
:102820006C65642061742066696C653A2025732CA0
:10283000206C696E653A2025640D0A000FB4F0B56E
:10284000C1B004460E4649A80090FF2101A8009B94
:10285000489AFEF7A1FE07B200200090601CE0B984
:10286000002517E0144850F8250088B1124850F8A8
:102870002500007960B1104850F825004079B04239
:1028800006DB0D4850F825003946026801A890473C
:10289000681C05B2052DE5DB09E044B1207930B1B3
:1028A0006079B04203DB394601A82268904741B005
:1028B000F0BC5DF814FB0000EC040020FEF716FBF2
:1028C0004FF4A060FEF7CCF90121C806FEF7D2F95B
:1028D00090214FF47A7001F0A3FC0A4801F0CEFD7C
:1028E0000948FFF7A9FE0948FFF7F0FA0021084858
:1028F00000F07AF8FFF70EFD03E001F01FFCFEF791
:102900006BF9FAE7640000204C000020440000202E
:102910009000002010B5044624B920210448FEF799
:1029200057F903E020210248FEF754F910BD0000DA
:102930000010014008B501211020FEF7B5F9202054
:10294000ADF8000010208DF8030002208DF8020081
:1029500069460248FEF7A8F808BD000000100140D3
:102960007CB504462546002000900190052305F122
:102970002D02302105F1100000F019FA05236A46F6
:10298000102105F1100000F08CF8052205F12D0151
:102990006846FDF742FC08B900207CBD0120FCE739
:1029A00010B5044624B910210448FEF711F903E0DC
:1029B00010210248FEF70EF910BD00000010014082
:1029C00008B501211020FEF76FF91020ADF80000C6
:1029D0008DF8030002208DF8020069460148FEF7D9
:1029E00063F808BD0010014070B504460E46254648
:1029F00028698047686980472868804768688047F9
:102A00000120A96988470020A9688847012E03D1C1
:102A1000284600F041F903E016B9284600F060F8B6
:102A2000FF22E22105F1100000F0ABF900BF2846BB
:102A3000FFF796FF00B1FAE770BD000008B501216D
:102A40000820FEF731F90120ADF8000004208DF8D0
:102A5000030002208DF8020069460248FEF724F8C0
:102A600008BD0000000C014010B501210148FEF72F
:102A7000A6F810BD000C01402DE9F04104460E46B9
:102A800025460020A96888473046E9688847002025
:102A9000E968884707460120A96888473846BDE8A5
:102AA000F0812DE9F04704460F46904699462546A9
:102AB0000020A96888473846E9688847824600268A
:102AC00006E00020E968884708F80600701CC6B2D6
:102AD0004E45F6DB0120A96888475046BDE8F087DF
:102AE00070B5044625460020A9688847052305F1EE
:102AF0002D022A2105F1100000F059F901222121AF
:102B000005F1100000F03DF90122222105F110002D
:102B100000F037F995F82C20252105F1100000F080
:102B200030F92022312105F1100000F02AF90F229E
:102B3000262105F1100000F024F90F22202105F1D3
:102B4000100000F01EF9FF22272105F1100000F00F
:102B500018F90120A96888479620A96A884770BD9E
:102B60002DE9F04104460E462546072105F11000E7
:102B7000FFF782FF07463A46272105F1100000F0D3
:102B800000F907F0400078B120233246612105F1B9
:102B90001000FFF786FFFF22E22105F1100000F090
:102BA000F0F80020BDE8F0810120FBE770B5064693
:102BB0000D463446012D2AD10720344908703220B1
:102BC000005D487094F85300887094F8532004F125
:102BD00033012E48C01CFDF7E7FA94F85300C01CDF
:102BE000C1B22A48FDF7B5FE84F8540094F8541099
:102BF00094F85300401C254A1154AA2194F853001C
:102C0000801C11541146204600F085F838E0BDBB09
:102C10001E492046FFF7A4FF90BB1C48817884F82A
:102C200053103220005D19494978884228D14FF469
:102C3000FA7201211648FFF7A5F901211548FFF79F
:102C4000CFFC1248007807281AD110488079AA28AA
:102C500016D194F85300C01CC1B20C48FDF779FEA0
:102C600084F8540094F8540008494979884207D1FF
:102C700094F853200549C91C04F13300FDF794FA78
:102C800080210248FDF7A9FA70BD00004C03002026
:102C9000440000205400002070B504462546002062
:102CA000A9688847052305F12D02302105F11000A0
:102CB00000F07DF8052305F12D022A2105F1100011
:102CC00000F075F80122212105F1100000F059F8FB
:102CD0000122222105F1100000F053F80A222421DC
:102CE00005F1100000F04DF895F82C20252105F194
:102CF000100000F046F80F22262105F1100000F028
:102D000040F80E22202105F1100000F03AF896203C
:102D1000A96A884770BD2DE9F04105460F462C464B
:102D20000020A168884720233A46A02104F1100022
:102D300000F03DF80120A168884700BFE0688047A7
:102D40000128FBD0072104F11000FFF795FE06468D
:102D50003246272104F1100000F013F806F01000AD
:102D600040B1FF22E12104F1100000F00AF8102028
:102D7000BDE8F08106F0200008B12020F8E7FF2030
:102D8000F6E72DE9F04104460E4617462546002099
:102D9000A96888473046E968884780463846E96828
:102DA00088470120A96888474046BDE8F0812DE9A1
:102DB000F04704460F461646984625460020A96867
:102DC00088473846E968884782464FF0000907E09F
:102DD00016F8010BE968884709F1010000F0FF09C6
:102DE000C145F5DB0120A96888475046BDE8F0875A
:102DF00010B5044624B980210448FDF7E9FE03E03C
:102E000080210248FDF7E6FE10BD000000100140E1
:102E100010B5044600210248FFF7C8FE10BD0000AF
:102E20009000002010B504460121204600F073F800
:102E300010BD000010B50446226891682069FDF7B6
:102E4000DEF960B994F8600020F00100401C84F8BD
:102E5000600008480168204601F014F904E00548C4
:102E6000416B204601F00EF90020A0810021E18194
:102E700010BD0000F80000200246087848B14878EC
:102E800000F00F00072804D0087813681B7818405A
:102E900050B192F8600000F0010018B94878C0F312
:102EA000001008B1002070474FF0FF30FBE7000032
:102EB00010B500F0E5FA044624B10348816B2046C2
:102EC00001F0E0F810BD0000F800002070B50446E5
:102ED000A189E089081A05B205E02021204601F009
:102EE00029F8681E05B2002DF7DC217B204600F092
:102EF0007FF870BD10B500F0C3FA044614B1204647
:102F000000F0EEFB10BD10B504464FF0FF31204637
:102F100000F001F810BD2DE9F04104460D46681C93
:102F200008B9012000E000200746E08908B9012D1A
:102F300005D0E089A189884203D1681C08B9BDE8A1
:102F4000F081E089A189884210D1012D0ED1E0895C
:102F5000401EE081A089401EA0810021A289206935
:102F600081540121204600F043F83FE038460AE052
:102F7000E18901442269525CE1890144491E2369C7
:102F80005A54411C08B2A289E189511A8142EFDCEE
:102F9000A089401EA08137B9E089401EE081082148
:102FA000204600F0C7FF0021A28920698154E089F2
:102FB00006B206E02069815D204600F0BBFF701C70
:102FC00006B2A089B042F5DC2021204600F0B2FF15
:102FD000A189E089081A401C06B205E008212046B4
:102FE00000F0A8FF701E06B2002EF7DC00BFA6E7B7
:102FF00070B505460C4603E004A1284601F042F8EE
:10300000201EA4F10101CCB2F6D170BD0820080049
:1030100010B504464FF0FF31204600F0A7FA10BD6E
:1030200010B50446204600F005F8204600F0B2FF37
:1030300010BD000070B50446A08918B9204600F004
:10304000A9FF70BD0021A2892069815494F8600015
:1030500000F0010028B3204600F0E9FA204600F015
:1030600067FC0021E181A181E08E18B9204600F0C3
:1030700091FFE6E70DA1204601F004F80023204669
:10308000A26D616900F030FD054625B12946204654
:1030900000F0D5FC04E006488169204600F0F2FF0C
:1030A00002E02046FFF7C6FE00BFCAE70D0A000097
:1030B000F800002010B50246114600200B78302B96
:1030C00007D14B78782B02D04B78582B01D10320B5
:1030D0000EE00B78302B07D14B78622B02D04B7867
:1030E000422B01D1012003E00B78302B00D10220CC
:1030F00006E00B782E2B03D14B780BB1042003E0B4
:1031000011F8014B002CF4D100BF10BD0246511C38
:1031100000200B785C2B1AD14B786E2B0ED004DC80
:10312000302B0FD0622B0FD104E0722B04D0742B04
:103130000AD105E0082009E00D2007E00A2005E09B
:10314000092003E0002001E0487800BF00E0087893
:1031500070472DE9F04F85B005464FF000094FF05C
:103160000A0A2C46CB460126002700200490804600
:1031700028782D2800D1B61E711C09B9012100E064
:1031800000214819FFF796FF8146B9F1010F0FD0D2
:10319000B9F1020F07D0B9F1030F0DD14FF0100AAA
:1031A0004FF0020B09E04FF0080A4FF0010B04E06A
:1031B0004FF0020AD34600E000BF00BF05EB0B0151
:1031C000701C08B9012000E000200C1811E02078E4
:1031D0002E2803D14FF00108641C0AE0207800F08B
:1031E000F3F807FB0A0708EB88004FEA4008641C65
:1031F00000BF20780028EAD1B9F1040F1AD1B8F144
:10320000000F17D03046FDF794F803904046FDF7C5
:1032100099F801903846FDF795F800900199FDF76F
:103220004AF802900399FDF714F80490049805B049
:10323000BDE8F08F07FB06F0F9E770B505460C46D0
:103240002078272805D1607818B12046FFF75EFF67
:1032500070BD20782D2805D02078302806DB207816
:10326000392803DC2046FFF774FFF1E72078242893
:1032700006D1607820B12146284600F02EF8E7E715
:10328000207818B1204600F003F8E1E70020DFE7DE
:1032900070B50446254600262078222802D1601CFD
:1032A0000446054613E028785C2805D1681EFFF720
:1032B0002DFFA0556D1C07E02878222802D10020A0
:1032C000A05501E02878A0556D1C701C86B22878A6
:1032D0000028E8D1A055204670BD70B504460D46C3
:1032E0000023691C2046A26D00F0FEFB064626B1B5
:1032F0003146204600F0DEF870BD0020FCE72DE9E5
:10330000F0438BB081460C4615461F46202103A88A
:10331000FCF763FFA07800F00F01681E814203DD17
:10332000A07800F00F0000E0681E8046002609E04B
:10333000701C57F820104846FFF77FFF03A941F89B
:103340002600761C681EB042F2DCB8F1080F38D2B5
:10335000DFE808F004090D12171C232CA068804731
:103360000BB0BDE8F0830398A1688847F8E7DDE972
:103370000301A2689047F3E703A807C8A36898472A
:10338000EEE703A80FC8A668B047E9E707980090E2
:1033900003A80FC8A668B047E2E7DDE90701CDE959
:1033A000000103A80FC8A668B047D9E7DDE90712F6
:1033B0000998CDE90012029003A80FC8A668B0478B
:1033C000CEE74FF0FF30CBE70146302905DB392946
:1033D00003DCA1F13000C0B27047612905DB66292A
:1033E00003DCA1F15700C0B2F6E7412905DB46290D
:1033F00003DCA1F13700C0B2EEE70020ECE70146A4
:10340000487800F00F00012801DCC8687047487850
:1034100000F00F00062801DCC868F7E7487800F0E4
:103420000F00072801DCC868F0E7C868EEE7000075
:1034300010B50446002004E03021104A1154411C0C
:10344000C8B20928F8DB607800F00F00012801DC21
:10345000606810BD607800F00F00062801DC60682D
:10346000F7E7607800F00F00072801DC6068F0E7FC
:103470000249606800F029FD0048EAE714050020D1
:10348000002111E00A4850F8210058B1084850F8CE
:10349000210090F86000C0F3400018B1044850F8D3
:1034A00021007047481C01B20529EBDB0020F8E73A
:1034B0000005002010B5034600204A7802F00F02F4
:1034C000921E052A11D2DFE802F003060A0D0E0053
:1034D0008A6810680AE08A68B2F9000006E08A6823
:1034E000107803E000BF886800E000BF00BF10BD97
:1034F0002DE9F04104460E46FFF7C2FF05460DB91F
:10350000BDE8F081012C03D1284600F0E3F826E065
:10351000012C24DDAA6D00232846716800F0E4FA2E
:1035200007461048C16A284600F0ACFD3846FFF750
:103530007FFF80464146284600F0A4FD0AA12846A8
:1035400000F0A0FD3846FFF75AFF80464146284666
:1035500000F098FD04A1284600F094FD00BF00BFD4
:10356000CEE70000F80000200D0A000070B5044608
:103570000D46002D25DDB4F954105420005B401E8B
:1035800002B2542002535020025B5220005B824260
:1035900002DD5020005B01E05220005B404281428E
:1035A0001DDC5020015B5220005B814202DD502077
:1035B000005B01E05220005B404201B25420015305
:1035C0000DE0002D0ADA5420005B401C01B25420AB
:1035D0000153002903DD0021015370BDFDE72046A2
:1035E000FFF774FC5420005B18B90021A181E18130
:1035F0001BE05220005B401DB4F954100844052123
:1036000090FBF1F201FB120104F13C0050F8216043
:103610003146206900F09CFBA08100B9DDE7A1895B
:10362000E1812046216900F02DFD00BFD5E710B5EE
:1036300004460021542001535020005B002810DD77
:103640005222125B21690AB9052201E05222125B63
:10365000521E04F13C0353F82200FCF7D0FD00B9E0
:1036600010BD5222135B04F13C0252F82300216981
:1036700000F06EFB28B15220005B401C81B252204A
:1036800001535020005B401C81B25020015305299A
:1036900001DD052101535220005B052802DB0021DA
:1036A0005220015300BFDBE710B5FFF7E9FE0446E7
:1036B00014B1204600F0B8F810BD10B50446E089FA
:1036C000002806DD0821204600F034FCE089401E79
:1036D000E08110BD10B50446204600F001F810BD91
:1036E00070B50546AE6D10488168284600F0CAFCEA
:1036F000002413E006EB0410407800F00F000128CE
:103700000ADC06EB04112846FFF7B6FB20B906EBEE
:103710000411284600F00AF8601C04B25C20405BEB
:10372000A042E7DC70BD0000F80000202DE9F04168
:1037300007460C462046FFF77BFE054629463846DD
:1037400000F0A0FCC0F1160006B2002E01DD3046EC
:1037500000E00420064600BF2021384600F0EAFBC6
:10376000701E00B2061EF7D1607800F00F0001282D
:1037700005DC2A48016C384600F084FC25E06078BE
:1037800000F00F00062805DC2448416C384600F0A4
:1037900079FC1AE0607800F00F00072805DC1F486C
:1037A000816C384600F06EFC0FE0607800F00F008E
:1037B000082805DC1948C16C384600F063FC04E0B9
:1037C0001648016D384600F05DFC15A1384600F042
:1037D00059FC07250DE020780122AA40104008B1CD
:1037E000782000E02D200146384600F0A3FB681E3B
:1037F00045B2002DEFDA0AA1384600F043FC20461E
:10380000FFF7FDFD05462946384600F09AFB05A165
:10381000384600F037FCBDE8F0810000F8000020D9
:10382000202000000D0A000070B50646B56D134853
:103830004169304600F026FC00241AE005EB041034
:10384000407800F00F00072811DD05EB04104078E8
:1038500000F00F0008280ADC05EB04113046FFF7E2
:103860000BFB20B905EB04113046FFF75FFF601C2E
:1038700004B25C20805BA042E0DC70BDF800002058
:1038800070B50646B56D13480169304600F0FAFB85
:1038900000241AE005EB0410407800F00F00062821
:1038A00011DD05EB0410407800F00F0007280ADC5A
:1038B00005EB04113046FFF7DFFA20B905EB0411E0
:1038C0003046FFF733FF601C04B25C20805BA042EF
:1038D000E0DC70BDF800002070B50646B56D1348F9
:1038E000C168304600F0CEFB00241AE005EB04105E
:1038F000407800F00F00012811DD05EB041040783E
:1039000000F00F0006280ADC05EB04113046FFF733
:10391000B3FA20B905EB04113046FFF707FF601C2E
:1039200004B25C20805BA042E0DC70BDF8000020A7
:10393000F0B500220123002106E0002500F1140467
:1039400044F821504C1C21B20829F6DB0024C4861F
:1039500000212DE032B90469645C202C22D0046976
:10396000645CFCB10469645C222C04D10AB90124B2
:1039700000E000242246012B09D104696518C68E97
:10398000741CC48600F1140444F826500023046912
:10399000645C5C2C0AD14C1C05692C5D34B14C1C58
:1039A000A1B203E000250469655401234C1CA1B2B7
:1039B00084898C42CEDCF0BD70B5044600252BE036
:1039C00004F1140050F82500007822280CD10021C1
:1039D00004F1140050F82500017004F1140050F8AF
:1039E0002510491C40F8251004F1140151F8250058
:1039F000FCF7FEFB86B204F1140050F82510701E8F
:103A0000085C222806D1002104F1140050F825207A
:103A1000701E1154681C85B2E08EA842D0DC70BDC7
:103A200010B50446E089A189884207DAE289501C72
:103A3000E0812069815C204600F07CFA10BD70B501
:103A400004460D4694F8600020F00200801C84F8C3
:103A50006000687800F00F0088B92046FFF7ACFFDF
:103A6000E08E04F11401AA68904706466878C0F316
:103A7000401040BB3146204600F0BEFA2DE0687889
:103A800000F00F00012810D1E28E04F11403294642
:103A90002046FFF734FC06466878C0F3401090B922
:103AA0003146204600F0A8FA17E0687800F00F00D1
:103AB000022809DB687800F00F00062804DC29469C
:103AC000204600F0E7F808E0687800F00F000728CB
:103AD00003D12946204600F045F894F8600020F014
:103AE000020084F8600070BD2DE9F0470646884664
:103AF00014461F465C20805BB16D611AA0EB11106B
:103B00001FFA80F9002528E004EB0510407800F04A
:103B10000F00082805D004EB05113046FFF7ACF97B
:103B200000B118E004EB0510FFF782FC824647B9AC
:103B300051464046FCF763FB60B904EB0510BDE855
:103B4000F0873A4651464046FCF774FB10B904EB47
:103B50000510F4E700BF681C85B24D45D4DB00209A
:103B6000EDE7000070B504460D462560A86858B121
:103B7000A868FCF73DFB38B1E08E022806DBA1699E
:103B8000A868FCF73CFB08B9012000E0002094F88D
:103B9000601060F3000184F860100848816B2046D3
:103BA00000F070FA94F8600000F0010020B10348C2
:103BB0000168204600F066FA70BD0000F8000020A1
:103BC0002DE9F04106460F46FFF75AFC054615B9A8
:103BD0000020BDE8F081002331462846AA6DFFF79A
:103BE00083FF044634B91348816A284600F04AFA34
:103BF0000020EEE7607800F00F00022804DB607818
:103C000000F00F0006280ADD3146284600F03AFA97
:103C10000848416A284600F035FA0020D9E73A46BC
:103C20002146284600F008F821462846FFF742FCC6
:103C3000CFE70000F800002070B506460C46154698
:103C4000607800F00F00801E05281AD2DFE800F02F
:103C500003060A0D1300A068056013E029B2A068EE
:103C600001800FE0A06805700CE00948C16930468A
:103C700000F008FA06E00648016A304600F002FA51
:103C800000E000BF00BF2146304600F003F870BDE1
:103C9000F8000020FEB505460C461BA207CA8DE8B9
:103CA000070021462846FFF705FC074628466168BD
:103CB00000F0E8F917A1284600F0E4F96946384613
:103CC00000F0D8F8C0F10B00694646183146284686
:103CD00000F0D8F910A1284600F0D4F9002004E043
:103CE00030210DF80010411C08B20B28F8DB6946A2
:103CF000384600F0EAF86946284600F0C3F908A102
:103D0000284600F0BFF9FEBD303030303030303062
:103D100030303000203D20002C20307800000000A2
:103D20000D0A000030B502460B460020002108E0D5
:103D3000545C5D5CAC4200D008E0441CA0B24C1C5A
:103D4000A1B2545C14B15C5C002CF1D100BF30BD59
:103D50000246002003E00B5C1354431C98B20B5C3A
:103D6000002BF8D1135470472DE9F84F0446B4F8EE
:103D700034A04FF000080025A08930B92046FFF795
:103D8000A9FC204600F006F96FE0A08900286CDD50
:103D90000021A28920698154A66D002737E006EB37
:103DA00007112046FFF768F878BB06EB0710FFF70E
:103DB0003FFB834659462069FFF7B4FFA18988423B
:103DC00023D1F5B1012D03D129A1204600F05AF9E4
:103DD00006EB08112046FFF7A9FC06EB0710FFF7DA
:103DE00027FB834606EB0810FFF722FB594600909D
:103DF000FFF798FF8146CA4501DD484600E050467E
:103E000082461FFA87F8681C85B2781C07B25C20CE
:103E1000005BB842C3DC0DB9BDE8F88F012D02D1BB
:103E20002046FFF753F84DB106EB0810FFF700FBF3
:103E3000074639462069FFF78BFFA081012D09DD78
:103E400006EB08112046FFF771FC204600F0A2F8AF
:103E5000A4F80CA00021A28920698154A189E181E4
:103E60002046216900F00EF900BF00BFD4E7000032
:103E70000D0A000030B502460B241346002A00DA72
:103E800053420020C8720DE00A2093FBF0F500FBBE
:103E900015303030C5B2601EC0B204460D540A2041
:103EA00093FBF0F3002BEFD1002A04DA2D25601EDE
:103EB000C0B204460D5422B93025601EC0B204467B
:103EC0000D54C4F10B0040B230BD30B502460B4674
:103ED0000824002018720EE002F00F01092902DD0B
:103EE00001F1570001E001F13000C5B2601EC0B21F
:103EF00004461D541209002AEED1C4F1080040B254
:103F000030BD10B5044601212046FFF72FFB10BD40
:103F100010B5FFF7B5FA044614B12046FFF7B0FC20
:103F200010BD10B5FFF7ACFA044614B12046FFF7F8
:103F3000D3FC10BD70B504460D462846A16E8847D7
:103F400070BD70B505460C460026A86E08B9002065
:103F500070BD12E014F8010BA96E8847701C86B280
:103F6000242E0ADB607840B12E20A96E88472E20CF
:103F7000A96E88472E20A96E8847207838B120780E
:103F80000D2804D020780A2801D0242EE2DB304608
:103F9000DEE7000010B5044694F8600000F0010070
:103FA000D0B110A1204600F06DF82068416820468D
:103FB00000F068F80CA1204600F064F8A06808B191
:103FC000A06800E009A00146204600F05BF808A1C7
:103FD000204600F057F804E00648016B204600F048
:103FE00051F810BD0D0A00003A0000002F0000003B
:103FF00024200000F8000020FEB505460C4618A25B
:10400000D2E900109268CDE90102009117A128467B
:1040100000F038F869462046FFF72CFFC0F10B008E
:10402000694646183146284600F02CF812A1284669
:1040300000F028F8002004E030210DF80010411CA9
:1040400008B20B28F8DB69462046FFF73EFF6946B9
:10405000284600F017F80AA1284600F013F8FEBD24
:1040600030303030303030303030300052657475A0
:10407000726E3A20000000002C2030780000000012
:104080000D0A000070B505460C460026A86E08B95A
:10409000002070BD05E014F8010BA96E8847701C64
:1040A00086B220780028F6D13046F2E700B587B016
:1040B00001210420FCF7F8FD01210846FCF7F4FD7E
:1040C00001210803FCF7F0FDE020ADF818001820EE
:1040D0008DF81B0002208DF81A0006A91548FCF780
:1040E000E3FCE0211348FCF775FD0020ADF8040067
:1040F0004FF48270ADF806000020ADF80800ADF86E
:104100000A00ADF80C004FF40070ADF80E00082066
:10411000ADF810000020ADF812000720ADF8140033
:1041200001A90548FCF728FE01210348FCF70AFE17
:1041300007B000BD000801400030014010B500206C
:10414000124908701AE012481049097800EB011072
:10415000007870B10E480D4A127800EB0210C16869
:104160000020884700200A49084A127801EB021112
:10417000087006480078401C04490870034800781D
:10418000044909788842DEDB10BD000041000020B0
:10419000000000204000002000201E49087032E08E
:1041A0001D481C49097800EB0110406830B31A48DB
:1041B0001849097800EB01104068401E1649154A5D
:1041C000127801EB0211486013481249097800EB9C
:1041D0000110406890B901210F480E4A127800EB97
:1041E000021001700C480B49097800EB011081683E
:1041F0000948084A127800EB02104160054800782F
:10420000401C044908700348007804490978884232
:10421000C6DB704742000020000000204000002064
:1042200030B585B005460C4601210846FCF72CFD4B
:10423000681E0390601E80B2ADF804000020ADF847
:1042400010008DF812000290ADF8100001A94FF097
:104250008040FDF79DF801218807FCF7DBFF012175
:104260008807FCF7DAFF012211469007FDF74CF8AA
:104270001C208DF8000000208DF8010002208DF830
:10428000020001208DF803006846FCF7B1FC012113
:104290008807FCF7C5FF05B030BD000030B585B01C
:1042A00005460C4601210220FCF7EEFC681E039037
:1042B000601E80B2ADF804000020ADF810008DF84B
:1042C00012000290ADF8100001A91248FDF760F845
:1042D00001211048FCF79EFF01210E48FCF79DFFCD
:1042E000012211460B48FDF70FF81D208DF8000044
:1042F00002208DF8010003208DF8020001208DF8C6
:1043000003006846FCF774FC01210248FCF788FFB3
:1043100005B030BD0004004030B589B005460C46FC
:1043200001210420FCF7B0FC681E0790601E80B2DB
:10433000ADF814000020ADF820008DF822000690A2
:10434000ADF8200005A92248FDF722F80420ADF8B9
:1043500004000020ADF806000120ADF808000020A0
:10436000ADF80A000320ADF80C0001A91848FCF7CD
:104370007BFF012211461648FCF7C6FF01220421EB
:104380001348FCF7C1FF01211148FCF743FF04214A
:104390000F48FCF73FFF01210D48FCF73EFF0421C9
:1043A0000B48FCF73AFF1E208DF8100001208DF815
:1043B000110002208DF8120001208DF8130004A8CE
:1043C000FCF716FC01210248FCF72AFF09B030BDBA
:1043D00000080040014691F82220012A06D0022A56
:1043E0000DD0032A14D0042A14D112E001220C4B60
:1043F0001A700C4A1278521C0A4B1A700BE00122F8
:10440000074B1A70074A1278521E064B1A7002E0C8
:1044100001E000E000BF00BF002281F822207047C9
:10442000E8000020E900002008B501210820FCF781
:104430003BFC01211020FCF737FC4FF48070ADF8F5
:10444000000010208DF8030002208DF8020069465C
:104450000848FCF729FB0120ADF8000010208DF87A
:10446000030002208DF8020069460348FCF71CFB9C
:1044700008BD0000000C01400010014070B504466A
:1044800025462846FDF750FE96212846FDF745FEB5
:1044900000220621284600F07FF800220521284648
:1044A00000F07AF870BD2DE9F04104460D4627462C
:1044B0003846FDF7B5FED2213846FDF784FE384672
:1044C000FDF7DEFE29463846FDF77DFE3846FDF74E
:1044D000D7FE3846FDF7BCFE3846FDF7A1FED321D6
:1044E0003846FDF770FE3846FDF7CAFE0021384613
:1044F000FDF73DFE06463846FDF7AAFE3046BDE80C
:10450000F081000010B5044624B901210448FCF7ED
:104510005FFB03E001210248FCF75CFB10BD0000DB
:104520000010014010B560B10C4B1B6823F00F0365
:104530000A4C236023461B6843F0030223461A609B
:104540000BE0064B1B6823F00F03044C236023464B
:104550001B6843F008012346196010BD040C01409C
:1045600010B504462CB94FF480710548FCF730FBB8
:1045700004E04FF480710248FCF72CFB10BD0000F2
:10458000000C014010B54FF480710248FCF717FB96
:1045900010BD0000000C01402DE9F04104460E461C
:1045A000154627463846FDF73BFED2213846FDF733
:1045B0000AFE3846FDF764FE31463846FDF703FE35
:1045C0003846FDF75DFE29463846FDF7FCFD3846C6
:1045D000FDF756FE3846FDF73BFEBDE8F0810021B1
:1045E00006E0002200E0521CC3009342FBD8491CA5
:1045F00040F6B8329142F4D37047002106E0002221
:1046000000E0521CC3009342FBD8491C0329F6D397
:1046100070476C6F675365744C6576656C007365A5
:1046200074206C6F67206C6576656C0068657864D3
:10463000756D70006865782064756D700D0A20686E
:10464000657864756D70205B6C6F675D205B62617F
:1046500073655D205B6C656E5D006C6F67536574A0
:104660004C6576656C006C657474657200006465F9
:104670006661756C7420757365720073657456613C
:1046800072007365742076617200757000646F77D4
:104690006E007269676874006C65667400746162AC
:1046A000006261636B7370616365006261636B7369
:1046B000706163650064656C65746500656E746542
:1046C0007200656E7465720068656C700073686F67
:1046D0007720636F6D6D616E6420696E666F0D0A81
:1046E00068656C70205B636D645D007573657273E3
:1046F000006C69737420616C6C2075736572006363
:104700006D6473006C69737420616C6C20636D64FC
:104710000076617273006C69737420616C6C207632
:104720006172006B657973006C69737420616C6CE5
:10473000206B657900636C65617200636C65617202
:1047400020636F6E736F6C65000000001B5B33317C
:104750006D202020204F66667365743A203030202B
:10476000303120303220303320303420303520308A
:104770003620303720303820303920304120304248
:104780002030432030442030452030461B5B3339F5
:104790006D0D0A000D0A436F6D6D616E64204C69EA
:1047A00073743A0D0A0000000D0A566172204C69BC
:1047B00073743A0D0A0000000D0A55736572204C9F
:1047C0006973743A0D0A00000D0A4B6579204C6933
:1047D00073743A0D0A000000436F6D6D616E6420C2
:1047E0006E6F7420466F756E640D0A000D0A576176
:1047F000726E696E673A20436F6D6D616E642069F9
:104800007320746F6F206C6F6E670D0A00000000DC
:1048100063616E2774207365742076616C0D0A00E5
:10482000206973206E6F742061207661720D0A001A
:1048300063616E27742073657420706F696E746590
:10484000720D0A000D0A205F202020202020202049
:10485000205F2020205F20202020202020202020DA
:1048600020202020202020205F2020202020202009
:104870002020205F205F200D0A7C207C202020202B
:104880005F5F5F7C207C5F7C207C5F205F5F5F20C0
:104890005F205F5F2020205F5F5F7C207C5F5F2068
:1048A00020205F5F5F7C207C207C0D0A7C207C20A8
:1048B00020202F205F205C205F5F7C205F5F2F2007
:1048C0005F205C20275F5F7C202F205F5F7C20279C
:1048D0005F205C202F205F205C207C207C0D0A7CE8
:1048E000207C5F5F7C20205F5F2F207C5F7C207CB2
:1048F0007C20205F5F2F207C202020205C5F5F20B9
:104900005C207C207C207C20205F5F2F207C207C12
:104910000D0A7C5F5F5F5F5F5C5F5F5F7C5C5F5F1A
:104920007C5C5F5F5C5F5F5F7C5F7C202020207C25
:104930005F5F5F2F5F7C207C5F7C5C5F5F5F7C5F85
:104940007C5F7C0D0A0D0A4275696C643A20202058
:104950002020202053657020333020323032302028
:1049600031353A31303A34330D0A56657273696F16
:104970006E3A2020202020332E302E340D0A436F33
:10498000707972696768743A202020286329203280
:10499000303230204C65747465720D0A00000000DE
:1049A0000D0A70617373776F7264206572726F7233
:1049B0000D0A0000566172206E6F7420466F756E8E
:1049C000740D0A001B5B324B0D000000434D442068
:1049D0000000000056415220000000004B455920C5
:1049E00000000000636F6D6D616E642068656C701F
:1049F000206F6620000000000D0A506C6561736531
:104A000020696E7075742070617373776F72643A89
:104A1000000000004E4F4E45000000001B5B324A74
:104A20001B5B314800000000555345520000000058
:104A3000904B0008000000204C010000FC0800081A
:104A4000444C00084C010020D4070000D415000895
:104A50000001000012460008C52700081E46000895
:104A6000000100002C460008892600083446000892
:104A700000070000664600086D4600086E46000804
:104A8000002100007B460008C13B00088246000868
:104A90000008000000415B1B033F00088A46000835
:104AA0000008000000425B1B113000088D46000822
:104AB0000018000000435B1B213A000892460008E2
:104AC0000018000000445B1BBB3600089846000835
:104AD0000008000000000009693D00089D4600082C
:104AE0000018000000000008252E0008A14600085C
:104AF000001800000000007F252E0008AB460008CB
:104B0000001800007E335B1B072F0008B546000825
:104B1000001800000000000A21300008BC46000810
:104B2000001800000000000D21300008C2460008F7
:104B300000200000C8460008F1340008CD460008F7
:104B400000210000EB460008113F0008F146000874
:104B500000210000FF460008F52E00080447000869
:104B60000021000011470008233F000816470008F5
:104B70000021000023470008A93600082847000844
:104B80000021000035470008B12E00083B4700080F
:104B9000414BF4010413452642085A14044BC52521
:104BA000105A0A04CB112E1013D1245308043A8250
:104BB000401AFD3013F12D4C08AD1E28C1132944B5
:104BC000140825451B0885041A61041A05041AFBFC
:104BD000041ADF04C1133D2A140835291B081504E3
:104BE0001A690C13AD401B08C10C1AA1044BED0C43
:104BF0000469381F7C112233445579012619299202
:104C0000061344481408EC471B0894041AA8041A15
:104C1000B8041AC8041AD8041A301C1A10041A202E
:104C20000413B4491B08E4041AF8041AA004131C62
:104C30004A1B08C4081ACC041AD4041A28101ADC17
:044C4000081A140832
:04000005080001717D
:00000001FF
